{
  "contractName": "Gun",
  "abi": [
    {
      "inputs": [
        {
          "name": "_make",
          "type": "string"
        },
        {
          "name": "_model",
          "type": "string"
        },
        {
          "name": "_serialNumber",
          "type": "string"
        },
        {
          "name": "_manufacturer",
          "type": "address"
        }
      ],
      "payable": false,
      "stateMutability": "nonpayable",
      "type": "constructor"
    },
    {
      "constant": false,
      "inputs": [
        {
          "name": "_msgSender",
          "type": "address"
        },
        {
          "name": "_address",
          "type": "address"
        }
      ],
      "name": "addOwnerHistory",
      "outputs": [
        {
          "name": "",
          "type": "bool"
        }
      ],
      "payable": false,
      "stateMutability": "nonpayable",
      "type": "function"
    },
    {
      "constant": true,
      "inputs": [],
      "name": "getOwnersHistory",
      "outputs": [
        {
          "name": "",
          "type": "address[]"
        }
      ],
      "payable": false,
      "stateMutability": "view",
      "type": "function"
    }
  ],
  "bytecode": "0x608060405234801561001057600080fd5b5060405161049b38038061049b83398101806040528101908080518201929190602001805182019291906020018051820192919060200180519060200190929190505050836000908051906020019061006a929190610108565b508260019080519060200190610081929190610108565b508160029080519060200190610098929190610108565b5060038190806001815401808255809150509060018203906000526020600020016000909192909190916101000a81548173ffffffffffffffffffffffffffffffffffffffff021916908373ffffffffffffffffffffffffffffffffffffffff16021790555050505050506101ad565b828054600181600116156101000203166002900490600052602060002090601f016020900481019282601f1061014957805160ff1916838001178555610177565b82800160010185558215610177579182015b8281111561017657825182559160200191906001019061015b565b5b5090506101849190610188565b5090565b6101aa91905b808211156101a657600081600090555060010161018e565b5090565b90565b6102df806101bc6000396000f30060806040526004361061004c576000357c0100000000000000000000000000000000000000000000000000000000900463ffffffff16806343c5a24314610051578063f3875e7d146100bd575b600080fd5b34801561005d57600080fd5b50610066610138565b6040518080602001828103825283818151815260200191508051906020019060200280838360005b838110156100a957808201518184015260208101905061008e565b505050509050019250505060405180910390f35b3480156100c957600080fd5b5061011e600480360381019080803573ffffffffffffffffffffffffffffffffffffffff169060200190929190803573ffffffffffffffffffffffffffffffffffffffff1690602001909291905050506101c6565b604051808215151515815260200191505060405180910390f35b606060038054806020026020016040519081016040528092919081815260200182805480156101bc57602002820191906000526020600020905b8160009054906101000a900473ffffffffffffffffffffffffffffffffffffffff1673ffffffffffffffffffffffffffffffffffffffff1681526020019060010190808311610172575b5050505050905090565b600060036001600380549050038154811015156101df57fe5b9060005260206000200160009054906101000a900473ffffffffffffffffffffffffffffffffffffffff1673ffffffffffffffffffffffffffffffffffffffff168373ffffffffffffffffffffffffffffffffffffffff1614151561024357600080fd5b60038290806001815401808255809150509060018203906000526020600020016000909192909190916101000a81548173ffffffffffffffffffffffffffffffffffffffff021916908373ffffffffffffffffffffffffffffffffffffffff1602179055505060019050929150505600a165627a7a723058201d43631a9ae1fd118462c8eb6cc05faa3d0ce9bca405b46be0b760162526efce0029",
  "source": "pragma solidity 0.4.23;\r\n\r\nimport './Safety.sol';\r\n\r\ncontract Gun {\r\n    \r\n    string make;\r\n    string model;\r\n    string serialNumber;\r\n    \r\n    address[] ownersHistory;\r\n    \r\n    constructor(string _make, string _model, string _serialNumber, address _manufacturer) public {\r\n        make = _make;\r\n        model = _model;\r\n        serialNumber = _serialNumber;\r\n        ownersHistory.push(_manufacturer);\r\n    }\r\n    \r\n    function addOwnerHistory(address _msgSender, address _address) public returns (bool) {\r\n        require(_msgSender == ownersHistory[ownersHistory.length - 1]);\r\n        ownersHistory.push(_address);\r\n        return true;\r\n    }\r\n    \r\n    function getOwnersHistory() constant public returns (address[]) {\r\n        return ownersHistory;\r\n    }\r\n    \r\n}",
  "sourcePath": "/mnt/c/Users/esteb/Documents/gunSafety/solidity/contracts/Gun.sol",
  "compiler": {
    "name": "solc",
    "version": "0.4.23+commit.124ca40d.Emscripten.clang"
  },
  "schemaVersion": "2.0.0",
  "updatedAt": "2018-05-01T08:16:57.352Z"
}