{
  "contractName": "Map",
  "abi": [
    {
      "constant": false,
      "inputs": [
        {
          "name": "make",
          "type": "string"
        },
        {
          "name": "model",
          "type": "string"
        },
        {
          "name": "serialNumber",
          "type": "string"
        },
        {
          "name": "_manufacturer",
          "type": "address"
        }
      ],
      "name": "createGun",
      "outputs": [
        {
          "name": "",
          "type": "address"
        }
      ],
      "payable": false,
      "stateMutability": "nonpayable",
      "type": "function"
    },
    {
      "constant": true,
      "inputs": [
        {
          "name": "make",
          "type": "string"
        },
        {
          "name": "model",
          "type": "string"
        },
        {
          "name": "serialNumber",
          "type": "string"
        }
      ],
      "name": "checkGun",
      "outputs": [
        {
          "name": "",
          "type": "address"
        }
      ],
      "payable": false,
      "stateMutability": "view",
      "type": "function"
    }
  ],
  "bytecode": "0x608060405234801561001057600080fd5b50610b8c806100206000396000f30060806040526004361061004c576000357c0100000000000000000000000000000000000000000000000000000000900463ffffffff16806367049e44146100515780639d9b6fa5146101a6575b600080fd5b34801561005d57600080fd5b50610164600480360381019080803590602001908201803590602001908080601f0160208091040260200160405190810160405280939291908181526020018383808284378201915050505050509192919290803590602001908201803590602001908080601f0160208091040260200160405190810160405280939291908181526020018383808284378201915050505050509192919290803590602001908201803590602001908080601f0160208091040260200160405190810160405280939291908181526020018383808284378201915050505050509192919290803573ffffffffffffffffffffffffffffffffffffffff1690602001909291905050506102db565b604051808273ffffffffffffffffffffffffffffffffffffffff1673ffffffffffffffffffffffffffffffffffffffff16815260200191505060405180910390f35b3480156101b257600080fd5b50610299600480360381019080803590602001908201803590602001908080601f0160208091040260200160405190810160405280939291908181526020018383808284378201915050505050509192919290803590602001908201803590602001908080601f0160208091040260200160405190810160405280939291908181526020018383808284378201915050505050509192919290803590602001908201803590602001908080601f01602080910402602001604051908101604052809392919081815260200183838082843782019150505050505091929192905050506105fa565b604051808273ffffffffffffffffffffffffffffffffffffffff1673ffffffffffffffffffffffffffffffffffffffff16815260200191505060405180910390f35b60008060008686866040518084805190602001908083835b60208310151561031857805182526020820191506020810190506020830392506102f3565b6001836020036101000a03801982511681845116808217855250505050505090500183805190602001908083835b60208310151561036b5780518252602082019150602081019050602083039250610346565b6001836020036101000a03801982511681845116808217855250505050505090500182805190602001908083835b6020831015156103be5780518252602082019150602081019050602083039250610399565b6001836020036101000a038019825116818451168082178552505050505050905001935050505060405180910390209150868686866103fb610751565b808060200180602001806020018573ffffffffffffffffffffffffffffffffffffffff1673ffffffffffffffffffffffffffffffffffffffff168152602001848103845288818151815260200191508051906020019080838360005b83811015610472578082015181840152602081019050610457565b50505050905090810190601f16801561049f5780820380516001836020036101000a031916815260200191505b50848103835287818151815260200191508051906020019080838360005b838110156104d85780820151818401526020810190506104bd565b50505050905090810190601f1680156105055780820380516001836020036101000a031916815260200191505b50848103825286818151815260200191508051906020019080838360005b8381101561053e578082015181840152602081019050610523565b50505050905090810190601f16801561056b5780820380516001836020036101000a031916815260200191505b50975050505050505050604051809103906000f080158015610591573d6000803e3d6000fd5b50905080600080846000191660001916815260200190815260200160002060006101000a81548173ffffffffffffffffffffffffffffffffffffffff021916908373ffffffffffffffffffffffffffffffffffffffff1602179055508092505050949350505050565b6000808484846040518084805190602001908083835b6020831015156106355780518252602082019150602081019050602083039250610610565b6001836020036101000a03801982511681845116808217855250505050505090500183805190602001908083835b6020831015156106885780518252602082019150602081019050602083039250610663565b6001836020036101000a03801982511681845116808217855250505050505090500182805190602001908083835b6020831015156106db57805182526020820191506020810190506020830392506106b6565b6001836020036101000a038019825116818451168082178552505050505050905001935050505060405180910390209050600080826000191660001916815260200190815260200160002060009054906101000a900473ffffffffffffffffffffffffffffffffffffffff169150509392505050565b6040516103ff80610762833901905600608060405234801561001057600080fd5b506040516103ff3803806103ff83398101806040528101908080518201929190602001805182019291906020018051820192919060200180519060200190929190505050836000908051906020019061006a929190610108565b508260019080519060200190610081929190610108565b508160029080519060200190610098929190610108565b5060038190806001815401808255809150509060018203906000526020600020016000909192909190916101000a81548173ffffffffffffffffffffffffffffffffffffffff021916908373ffffffffffffffffffffffffffffffffffffffff16021790555050505050506101ad565b828054600181600116156101000203166002900490600052602060002090601f016020900481019282601f1061014957805160ff1916838001178555610177565b82800160010185558215610177579182015b8281111561017657825182559160200191906001019061015b565b5b5090506101849190610188565b5090565b6101aa91905b808211156101a657600081600090555060010161018e565b5090565b90565b610243806101bc6000396000f30060806040526004361061004c576000357c0100000000000000000000000000000000000000000000000000000000900463ffffffff16806343c5a2431461005157806377c25876146100bd575b600080fd5b34801561005d57600080fd5b50610066610118565b6040518080602001828103825283818151815260200191508051906020019060200280838360005b838110156100a957808201518184015260208101905061008e565b505050509050019250505060405180910390f35b3480156100c957600080fd5b506100fe600480360381019080803573ffffffffffffffffffffffffffffffffffffffff1690602001909291905050506101a6565b604051808215151515815260200191505060405180910390f35b6060600380548060200260200160405190810160405280929190818152602001828054801561019c57602002820191906000526020600020905b8160009054906101000a900473ffffffffffffffffffffffffffffffffffffffff1673ffffffffffffffffffffffffffffffffffffffff1681526020019060010190808311610152575b5050505050905090565b600060038290806001815401808255809150509060018203906000526020600020016000909192909190916101000a81548173ffffffffffffffffffffffffffffffffffffffff021916908373ffffffffffffffffffffffffffffffffffffffff16021790555050600190509190505600a165627a7a72305820f895c8d13eb9862b756a92f483146b5d764c60f3cde6138bc1ba7aeef958abb50029a165627a7a72305820685ef55ef449a70b0cdd9d6eb38f42380322614a5baf62f30f54ef42e03e89b80029",
  "source": "pragma solidity 0.4.23;\r\n\r\nimport './Gun.sol';\r\n\r\ncontract Map {\r\n    \r\n    mapping(bytes32=>address) gunsMap;\r\n        \r\n    function createGun(string make, string model, string serialNumber, address _manufacturer) public returns (address) {\r\n        bytes32 hashBytes = keccak256(make, model, serialNumber);\r\n        Gun newGun = new Gun(make, model, serialNumber, _manufacturer);\r\n        gunsMap[hashBytes] = newGun;\r\n        return newGun;\r\n    }\r\n    \r\n    function checkGun(string make, string model, string serialNumber) constant public returns (address) {\r\n       bytes32 hashBytes = keccak256(make, model, serialNumber);\r\n        return gunsMap[hashBytes];\r\n    }\r\n    \r\n}",
  "sourcePath": "/mnt/c/Users/esteb/Documents/gunSafety/solidity/contracts/Map.sol",
  "compiler": {
    "name": "solc",
    "version": "0.4.23+commit.124ca40d.Emscripten.clang"
  },
  "schemaVersion": "2.0.0",
  "updatedAt": "2018-05-01T05:31:17.835Z"
}