{
  "contractName": "Safety",
  "abi": [
    {
      "inputs": [
        {
          "name": "_manufacturerAddress",
          "type": "address"
        }
      ],
      "payable": false,
      "stateMutability": "nonpayable",
      "type": "constructor"
    },
    {
      "constant": false,
      "inputs": [
        {
          "name": "_make",
          "type": "string"
        },
        {
          "name": "_model",
          "type": "string"
        },
        {
          "name": "_serialNumber",
          "type": "string"
        }
      ],
      "name": "createGun",
      "outputs": [
        {
          "name": "",
          "type": "address"
        }
      ],
      "payable": false,
      "stateMutability": "nonpayable",
      "type": "function"
    },
    {
      "constant": true,
      "inputs": [
        {
          "name": "_make",
          "type": "string"
        },
        {
          "name": "_model",
          "type": "string"
        },
        {
          "name": "_serialNumber",
          "type": "string"
        }
      ],
      "name": "checkGun",
      "outputs": [
        {
          "name": "",
          "type": "address"
        }
      ],
      "payable": false,
      "stateMutability": "view",
      "type": "function"
    },
    {
      "constant": false,
      "inputs": [
        {
          "name": "_make",
          "type": "string"
        },
        {
          "name": "_model",
          "type": "string"
        },
        {
          "name": "_serialNumber",
          "type": "string"
        },
        {
          "name": "_newOwnerAddress",
          "type": "address"
        }
      ],
      "name": "modifyGunOwner",
      "outputs": [
        {
          "name": "",
          "type": "bool"
        }
      ],
      "payable": false,
      "stateMutability": "nonpayable",
      "type": "function"
    },
    {
      "constant": false,
      "inputs": [
        {
          "name": "_gunAddress",
          "type": "address"
        },
        {
          "name": "_newOwnerAddress",
          "type": "address"
        }
      ],
      "name": "modifyGunOwnerFromAddress",
      "outputs": [
        {
          "name": "",
          "type": "bool"
        }
      ],
      "payable": false,
      "stateMutability": "nonpayable",
      "type": "function"
    }
  ],
  "bytecode": "0x608060405234801561001057600080fd5b50604051602080611bbf8339810180604052810190808051906020019092919050505061003b61014c565b604051809103906000f080158015610057573d6000803e3d6000fd5b50600260006101000a81548173ffffffffffffffffffffffffffffffffffffffff021916908373ffffffffffffffffffffffffffffffffffffffff16021790555060016000803373ffffffffffffffffffffffffffffffffffffffff1673ffffffffffffffffffffffffffffffffffffffff16815260200190815260200160002060006101000a81548160ff02191690831515021790555060018060008373ffffffffffffffffffffffffffffffffffffffff1673ffffffffffffffffffffffffffffffffffffffff16815260200190815260200160002060006101000a81548160ff0219169083151502179055505061015c565b604051610c4880610f7783390190565b610e0c8061016b6000396000f300608060405260043610610062576000357c0100000000000000000000000000000000000000000000000000000000900463ffffffff1680637d4ed153146100675780639d9b6fa514610194578063e2a3adf7146102c9578063f52721f5146103fe575b600080fd5b34801561007357600080fd5b5061017a600480360381019080803590602001908201803590602001908080601f0160208091040260200160405190810160405280939291908181526020018383808284378201915050505050509192919290803590602001908201803590602001908080601f0160208091040260200160405190810160405280939291908181526020018383808284378201915050505050509192919290803590602001908201803590602001908080601f0160208091040260200160405190810160405280939291908181526020018383808284378201915050505050509192919290803573ffffffffffffffffffffffffffffffffffffffff169060200190929190505050610479565b604051808215151515815260200191505060405180910390f35b3480156101a057600080fd5b50610287600480360381019080803590602001908201803590602001908080601f0160208091040260200160405190810160405280939291908181526020018383808284378201915050505050509192919290803590602001908201803590602001908080601f0160208091040260200160405190810160405280939291908181526020018383808284378201915050505050509192919290803590602001908201803590602001908080601f01602080910402602001604051908101604052809392919081815260200183838082843782019150505050505091929192905050506107a7565b604051808273ffffffffffffffffffffffffffffffffffffffff1673ffffffffffffffffffffffffffffffffffffffff16815260200191505060405180910390f35b3480156102d557600080fd5b506103bc600480360381019080803590602001908201803590602001908080601f0160208091040260200160405190810160405280939291908181526020018383808284378201915050505050509192919290803590602001908201803590602001908080601f0160208091040260200160405190810160405280939291908181526020018383808284378201915050505050509192919290803590602001908201803590602001908080601f0160208091040260200160405190810160405280939291908181526020018383808284378201915050505050509192919290505050610a1b565b604051808273ffffffffffffffffffffffffffffffffffffffff1673ffffffffffffffffffffffffffffffffffffffff16815260200191505060405180910390f35b34801561040a57600080fd5b5061045f600480360381019080803573ffffffffffffffffffffffffffffffffffffffff169060200190929190803573ffffffffffffffffffffffffffffffffffffffff169060200190929190505050610cc4565b604051808215151515815260200191505060405180910390f35b6000806000600260009054906101000a900473ffffffffffffffffffffffffffffffffffffffff1673ffffffffffffffffffffffffffffffffffffffff16639d9b6fa58888886040518463ffffffff167c010000000000000000000000000000000000000000000000000000000002815260040180806020018060200180602001848103845287818151815260200191508051906020019080838360005b83811015610532578082015181840152602081019050610517565b50505050905090810190601f16801561055f5780820380516001836020036101000a031916815260200191505b50848103835286818151815260200191508051906020019080838360005b8381101561059857808201518184015260208101905061057d565b50505050905090810190601f1680156105c55780820380516001836020036101000a031916815260200191505b50848103825285818151815260200191508051906020019080838360005b838110156105fe5780820151818401526020810190506105e3565b50505050905090810190601f16801561062b5780820380516001836020036101000a031916815260200191505b509650505050505050602060405180830381600087803b15801561064e57600080fd5b505af1158015610662573d6000803e3d6000fd5b505050506040513d602081101561067857600080fd5b810190808051906020019092919050505091508190508073ffffffffffffffffffffffffffffffffffffffff1663f3875e7d33866040518363ffffffff167c0100000000000000000000000000000000000000000000000000000000028152600401808373ffffffffffffffffffffffffffffffffffffffff1673ffffffffffffffffffffffffffffffffffffffff1681526020018273ffffffffffffffffffffffffffffffffffffffff1673ffffffffffffffffffffffffffffffffffffffff16815260200192505050602060405180830381600087803b15801561075d57600080fd5b505af1158015610771573d6000803e3d6000fd5b505050506040513d602081101561078757600080fd5b810190808051906020019092919050505050600192505050949350505050565b6000600115156000803373ffffffffffffffffffffffffffffffffffffffff1673ffffffffffffffffffffffffffffffffffffffff16815260200190815260200160002060009054906101000a900460ff16151514151561080757600080fd5b600260009054906101000a900473ffffffffffffffffffffffffffffffffffffffff1673ffffffffffffffffffffffffffffffffffffffff16639d9b6fa58585856040518463ffffffff167c010000000000000000000000000000000000000000000000000000000002815260040180806020018060200180602001848103845287818151815260200191508051906020019080838360005b838110156108bb5780820151818401526020810190506108a0565b50505050905090810190601f1680156108e85780820380516001836020036101000a031916815260200191505b50848103835286818151815260200191508051906020019080838360005b83811015610921578082015181840152602081019050610906565b50505050905090810190601f16801561094e5780820380516001836020036101000a031916815260200191505b50848103825285818151815260200191508051906020019080838360005b8381101561098757808201518184015260208101905061096c565b50505050905090810190601f1680156109b45780820380516001836020036101000a031916815260200191505b509650505050505050602060405180830381600087803b1580156109d757600080fd5b505af11580156109eb573d6000803e3d6000fd5b505050506040513d6020811015610a0157600080fd5b810190808051906020019092919050505090509392505050565b600060011515600160003373ffffffffffffffffffffffffffffffffffffffff1673ffffffffffffffffffffffffffffffffffffffff16815260200190815260200160002060009054906101000a900460ff161515141515610a7c57600080fd5b600260009054906101000a900473ffffffffffffffffffffffffffffffffffffffff1673ffffffffffffffffffffffffffffffffffffffff166367049e44858585336040518563ffffffff167c0100000000000000000000000000000000000000000000000000000000028152600401808060200180602001806020018573ffffffffffffffffffffffffffffffffffffffff1673ffffffffffffffffffffffffffffffffffffffff168152602001848103845288818151815260200191508051906020019080838360005b83811015610b63578082015181840152602081019050610b48565b50505050905090810190601f168015610b905780820380516001836020036101000a031916815260200191505b50848103835287818151815260200191508051906020019080838360005b83811015610bc9578082015181840152602081019050610bae565b50505050905090810190601f168015610bf65780820380516001836020036101000a031916815260200191505b50848103825286818151815260200191508051906020019080838360005b83811015610c2f578082015181840152602081019050610c14565b50505050905090810190601f168015610c5c5780820380516001836020036101000a031916815260200191505b50975050505050505050602060405180830381600087803b158015610c8057600080fd5b505af1158015610c94573d6000803e3d6000fd5b505050506040513d6020811015610caa57600080fd5b810190808051906020019092919050505090509392505050565b6000808390508073ffffffffffffffffffffffffffffffffffffffff1663f3875e7d33856040518363ffffffff167c0100000000000000000000000000000000000000000000000000000000028152600401808373ffffffffffffffffffffffffffffffffffffffff1673ffffffffffffffffffffffffffffffffffffffff1681526020018273ffffffffffffffffffffffffffffffffffffffff1673ffffffffffffffffffffffffffffffffffffffff16815260200192505050602060405180830381600087803b158015610d9957600080fd5b505af1158015610dad573d6000803e3d6000fd5b505050506040513d6020811015610dc357600080fd5b8101908080519060200190929190505050506001915050929150505600a165627a7a7230582009fa0bf2c25a92f10543d0a1af038f980e29d8922c8ea19d723e459caa58ea740029608060405234801561001057600080fd5b50610c28806100206000396000f30060806040526004361061004c576000357c0100000000000000000000000000000000000000000000000000000000900463ffffffff16806367049e44146100515780639d9b6fa5146101a6575b600080fd5b34801561005d57600080fd5b50610164600480360381019080803590602001908201803590602001908080601f0160208091040260200160405190810160405280939291908181526020018383808284378201915050505050509192919290803590602001908201803590602001908080601f0160208091040260200160405190810160405280939291908181526020018383808284378201915050505050509192919290803590602001908201803590602001908080601f0160208091040260200160405190810160405280939291908181526020018383808284378201915050505050509192919290803573ffffffffffffffffffffffffffffffffffffffff1690602001909291905050506102db565b604051808273ffffffffffffffffffffffffffffffffffffffff1673ffffffffffffffffffffffffffffffffffffffff16815260200191505060405180910390f35b3480156101b257600080fd5b50610299600480360381019080803590602001908201803590602001908080601f0160208091040260200160405190810160405280939291908181526020018383808284378201915050505050509192919290803590602001908201803590602001908080601f0160208091040260200160405190810160405280939291908181526020018383808284378201915050505050509192919290803590602001908201803590602001908080601f01602080910402602001604051908101604052809392919081815260200183838082843782019150505050505091929192905050506105fa565b604051808273ffffffffffffffffffffffffffffffffffffffff1673ffffffffffffffffffffffffffffffffffffffff16815260200191505060405180910390f35b60008060008686866040518084805190602001908083835b60208310151561031857805182526020820191506020810190506020830392506102f3565b6001836020036101000a03801982511681845116808217855250505050505090500183805190602001908083835b60208310151561036b5780518252602082019150602081019050602083039250610346565b6001836020036101000a03801982511681845116808217855250505050505090500182805190602001908083835b6020831015156103be5780518252602082019150602081019050602083039250610399565b6001836020036101000a038019825116818451168082178552505050505050905001935050505060405180910390209150868686866103fb610751565b808060200180602001806020018573ffffffffffffffffffffffffffffffffffffffff1673ffffffffffffffffffffffffffffffffffffffff168152602001848103845288818151815260200191508051906020019080838360005b83811015610472578082015181840152602081019050610457565b50505050905090810190601f16801561049f5780820380516001836020036101000a031916815260200191505b50848103835287818151815260200191508051906020019080838360005b838110156104d85780820151818401526020810190506104bd565b50505050905090810190601f1680156105055780820380516001836020036101000a031916815260200191505b50848103825286818151815260200191508051906020019080838360005b8381101561053e578082015181840152602081019050610523565b50505050905090810190601f16801561056b5780820380516001836020036101000a031916815260200191505b50975050505050505050604051809103906000f080158015610591573d6000803e3d6000fd5b50905080600080846000191660001916815260200190815260200160002060006101000a81548173ffffffffffffffffffffffffffffffffffffffff021916908373ffffffffffffffffffffffffffffffffffffffff1602179055508092505050949350505050565b6000808484846040518084805190602001908083835b6020831015156106355780518252602082019150602081019050602083039250610610565b6001836020036101000a03801982511681845116808217855250505050505090500183805190602001908083835b6020831015156106885780518252602082019150602081019050602083039250610663565b6001836020036101000a03801982511681845116808217855250505050505090500182805190602001908083835b6020831015156106db57805182526020820191506020810190506020830392506106b6565b6001836020036101000a038019825116818451168082178552505050505050905001935050505060405180910390209050600080826000191660001916815260200190815260200160002060009054906101000a900473ffffffffffffffffffffffffffffffffffffffff169150509392505050565b60405161049b80610762833901905600608060405234801561001057600080fd5b5060405161049b38038061049b83398101806040528101908080518201929190602001805182019291906020018051820192919060200180519060200190929190505050836000908051906020019061006a929190610108565b508260019080519060200190610081929190610108565b508160029080519060200190610098929190610108565b5060038190806001815401808255809150509060018203906000526020600020016000909192909190916101000a81548173ffffffffffffffffffffffffffffffffffffffff021916908373ffffffffffffffffffffffffffffffffffffffff16021790555050505050506101ad565b828054600181600116156101000203166002900490600052602060002090601f016020900481019282601f1061014957805160ff1916838001178555610177565b82800160010185558215610177579182015b8281111561017657825182559160200191906001019061015b565b5b5090506101849190610188565b5090565b6101aa91905b808211156101a657600081600090555060010161018e565b5090565b90565b6102df806101bc6000396000f30060806040526004361061004c576000357c0100000000000000000000000000000000000000000000000000000000900463ffffffff16806343c5a24314610051578063f3875e7d146100bd575b600080fd5b34801561005d57600080fd5b50610066610138565b6040518080602001828103825283818151815260200191508051906020019060200280838360005b838110156100a957808201518184015260208101905061008e565b505050509050019250505060405180910390f35b3480156100c957600080fd5b5061011e600480360381019080803573ffffffffffffffffffffffffffffffffffffffff169060200190929190803573ffffffffffffffffffffffffffffffffffffffff1690602001909291905050506101c6565b604051808215151515815260200191505060405180910390f35b606060038054806020026020016040519081016040528092919081815260200182805480156101bc57602002820191906000526020600020905b8160009054906101000a900473ffffffffffffffffffffffffffffffffffffffff1673ffffffffffffffffffffffffffffffffffffffff1681526020019060010190808311610172575b5050505050905090565b600060036001600380549050038154811015156101df57fe5b9060005260206000200160009054906101000a900473ffffffffffffffffffffffffffffffffffffffff1673ffffffffffffffffffffffffffffffffffffffff168373ffffffffffffffffffffffffffffffffffffffff1614151561024357600080fd5b60038290806001815401808255809150509060018203906000526020600020016000909192909190916101000a81548173ffffffffffffffffffffffffffffffffffffffff021916908373ffffffffffffffffffffffffffffffffffffffff1602179055505060019050929150505600a165627a7a723058201d43631a9ae1fd118462c8eb6cc05faa3d0ce9bca405b46be0b760162526efce0029a165627a7a723058203db60e658d020b5f34ec5287977afcb4b6bed1b13abd8c35a4d02b8969fbdd770029",
  "source": "\r\npragma solidity 0.4.23;\r\n\r\nimport './Map.sol';\r\nimport './Gun.sol';\r\n\r\n\r\ncontract Safety {\r\n    \r\n    // privileges to check a gun with the hash make|model|serialNumber\r\n    mapping(address=>bool) privilegedToCheckGun;\r\n    // privileges to create a gun\r\n    mapping(address=>bool) privilegedToCreateGun;\r\n    \r\n    Map map;\r\n    \r\n    // federal agents\r\n    modifier onlyPrivilegedToCheckGun {\r\n        require(privilegedToCheckGun[msg.sender] == true);\r\n        _;\r\n    }\r\n    \r\n    // gun manufacturers ? \r\n    modifier onlyPrivilegedToCreateGun {\r\n        require(privilegedToCreateGun[msg.sender] == true);\r\n        _;\r\n    }\r\n    \r\n    constructor(address _manufacturerAddress) public {\r\n        map = new Map();\r\n        // law enforcement\r\n        privilegedToCheckGun[msg.sender] = true;\r\n        // manufacturer\r\n        privilegedToCreateGun[_manufacturerAddress] = true;\r\n        \r\n    }\r\n    \r\n    function createGun(string _make, string _model, string _serialNumber) public onlyPrivilegedToCreateGun() returns (address) {\r\n        // check permission\r\n        // get gun information\r\n        // create new Gun contract\r\n        // associate Gun contract to Map contract mapping\r\n        return map.createGun(_make, _model, _serialNumber, msg.sender);\r\n    }\r\n    \r\n    function checkGun(string _make, string _model, string _serialNumber) constant public \r\n            onlyPrivilegedToCheckGun() returns (address) {\r\n        // check permission\r\n        // get make|model|serialNumber\r\n        // go to map to retrieve address\r\n        // return cgun contract address \r\n        return map.checkGun(_make, _model, _serialNumber);\r\n    }\r\n    \r\n    function modifyGunOwner(string _make, string _model, string _serialNumber, address _newOwnerAddress) public returns (bool){\r\n        address gunAddress = map.checkGun(_make, _model, _serialNumber);\r\n        Gun gun = Gun(gunAddress);   \r\n        gun.addOwnerHistory(msg.sender, _newOwnerAddress);\r\n        return true;\r\n    }\r\n    \r\n    function modifyGunOwnerFromAddress(address _gunAddress, address _newOwnerAddress) public returns (bool){\r\n        Gun gun = Gun(_gunAddress);   \r\n        gun.addOwnerHistory(msg.sender, _newOwnerAddress);\r\n        return true;\r\n    }\r\n\r\n}",
  "sourcePath": "/mnt/c/Users/esteb/Documents/gunSafety/solidity/contracts/Safety.sol",
  "compiler": {
    "name": "solc",
    "version": "0.4.23+commit.124ca40d.Emscripten.clang"
  },
  "schemaVersion": "2.0.0",
  "updatedAt": "2018-05-01T08:35:24.922Z"
}